:020000040800F2
:10000000580800202D4500083D4300083F430008E4
:100010004143000843430008454300080000000036
:10002000000000000000000000000000474300083E
:1000300049430008000000004B4300084D430008FE
:10004000574500085B4500085F4500086345000808
:10005000674500086B4500086F45000873450008B8
:10006000774500087B4500087F4500088345000868
:10007000874500088B4500088F4500089345000818
:10008000974500089B4500089F450008A3450008C8
:10009000A7450008AB450008AF450008B345000878
:1000A000B7450008BB4500085B430008BF45000892
:1000B000C3450008C7450008CB450008CF450008E8
:1000C000D3450008D7450008DB4500087D430008FC
:1000D000DF450008E345000883430008E7450008C2
:1000E000EB450008EF450008F3450008000000005C
:1000F0000000000000000000000000000000000000
:10010000000000000000000000000000F7450008AB
:10011000FB450008FF4500080346000800000000FA
:10012000074600080B4600080F4600081346000863
:10013000174600080000000000000000000000005A
:100140001B4600081F4600080000000000000000D9
:10015000000000000000000000000000000000009F
:1001600000000000000000002346000827460008A9
:100170002B46000800000000000000000000000006
:10018000000000002F4600082DE9F04F0FF2A41CDC
:10019000A1B0DCE90089CDE900892A9DDFF8109C37
:1001A000049100248DF843500D944FF0FF3882469F
:1001B00016461F460FE0B3462C461BF8011B049859
:1001C000D0470028049000F0A2800D98401C641EC7
:1001D0000D90F2D176193078252808D1002100221F
:1001E0000791089209910A920B910C920DE06A46D0
:1001F0004146304600F0F4FF050001D10D98A1E022
:10020000D9D50125E6E741F0010116F8010F2028B4
:10021000F9D023280CD02B2804D02D2805D0302845
:1002200009D076E041F00201EFE741F00401ECE78C
:1002300041F00801E9E741F01001E6E70F9209E01B
:100240000F98484505DA00EB800402EB4402303A8F
:100250000F92761C3278A2F130000A28F0D3307861
:100260002E2818BFCDF8388022D116F8010F2A2881
:1002700007D138683860761C50F8042B38600E922D
:1002800016E02D280CBF761C002000220E920AE0FA
:1002900040B90E9A4A4505DA02EB820403EB4403A7
:1002A000303B0E93761C3378A3F130020A2AEFD349
:1002B000ADF8401021A0317800F09CFF08B116F88D
:1002C000010B8DF842009DF84200682804D1307877
:1002D00068280AD1622105E06C2804BF30786C28B8
:1002E00003D171218DF84210761C12A806903A466F
:1002F00016F8013B02A9504600F064F838B912AA7A
:1003000002A9504600F0CAF900287FF564AF4046C4
:1003100018E02A2892D13A683A6052F8040B3A6001
:1003200000280F9003D540420F9041F00401761C45
:1003300095E700000000000000000000686A6C748F
:100340007A4C000021B0BDE8F08F622820D06828E8
:1003500011D06A2803D06C2827D0712825D10868CD
:10036000C01D20F007000860D0E9002308300860B5
:10037000194610467047002A0A680A60106803D0C0
:10038000121D0A6000B217E0121D0A6080B217E069
:10039000002A0A680A60106803D0121D0A6040B281
:1003A0000AE0121D0A60C0B20AE0002A0A680A6068
:1003B000106803D0121D0A60C1177047121D0A6031
:1003C000002170477CB50D4611461C462E69B4F1DC
:1003D000250200F051811C3A00F08680121F022A8B
:1003E00040F282800E3A00F00B81521F5AD0093A37
:1003F0007AD0921E16D0521E35D0521E022A73D9C0
:10040000121F30D0521F00F09A80521E4AD0521E46
:1004100000F0E480D21E00F00181921E42D0D21E74
:1004200040D02FE195F83A406C2C09D06869421C05
:100430006A610A680A6052F8043B0A6033542BE18F
:100440000A680A6052F8043B0A6000930022019295
:100450004FF0FF332B636A46294600F09AF90028D3
:1004600040F11A8105E195F83A000122FFF76DFF8E
:10047000C5E900010023994204DA6869411C6961F9
:100480002D220DE0288F810704D56869411C696120
:100490002B2205E0C00722D56869411C6961202232
:1004A00032541CE095F83A000022FFF74EFFC5E9F0
:1004B000000195F83800010711D5D5E90023002087
:1004C000834208BF82420AD044F02000782806D137
:1004D000686930213154401C421C6A613454214601
:1004E00068693044E86087E00868C01D20F00700B4
:1004F0000860D0E9002308300860C5E90023D5E989
:100500000001C80F04D06869411C69612D220DE00B
:10051000288F810704D56869411C69612B2205E099
:10052000C00704D56869411C69612022325468699A
:100530003044E8602146284600F03AFAACE005F184
:100540003A02507820B14FF0FF340FF6343074E0A7
:100550001078622808D0682824D06A2812D06C2825
:100560002ED071280ED02BE00A680A6052F8040BD6
:100570000A6020B94FF0FF340FF61C305DE0E96AE5
:10058000017089E00A680A6052F8040B0A6020B919
:100590004FF0FF340FF600304FE0EA6AD317C0E99E
:1005A000002379E00A680A6052F8040B0A6020B957
:1005B0004FF0FF340FF6E0203FE0E96A01806BE086
:1005C0000A680A6052F8040B0A6020B94FF0FF3441
:1005D0000FF6C42031E0E96A01605DE00A680A6054
:1005E00052F8040B0A60002120F0000221F0FF33D2
:1005F000C5E90023EE607821284600F02DF94BE094
:100600006C2285F83A200B680B6053F8042B0B60C2
:1006100052BB4FF0FF340FF6B4200EE095F83A20AD
:100620006C2AF0D00868086050F8044B0860EC6051
:100630003CB94FF0FF340FF6782000F003FE201A8B
:1006400076BD2E6B002E04D5204600F01BFE04461E
:1006500008E032460021204600F03EFE002814BF8C
:10066000041B3446AC6117E0294600F092F80028DC
:1006700012D54FF0FF3076BD6869411C69612522B3
:10068000325409E06969481C6861252272542100CE
:1006900002D0431C6B613454002076BD2DE9F0413B
:1006A0000E4605469046726B7069316AB46A121A3A
:1006B000B069521A716A121AF069521A121A96F82F
:1006C0003800141B41070DD4002C0BDD2746B06801
:1006D0002021A8470028B06057D0F06A401C7F1E38
:1006E000F062F4D1736942463146284600F0B0FC0E
:1006F00000284AD1376A002F0ADDB0683021A847A8
:100700000028B06041D0F06A401C7F1EF062F4D136
:10071000B369F2683146284600F09AFCA8BB776AB4
:10072000002F09DDB0683021A847B06068B3F06AD7
:10073000401C7F1EF062F5D1F068B169F369421880
:100740003146284600F084FCF8B9B76A002F09DD6D
:10075000B0683021A847B060B8B1F06A401C7F1E75
:10076000F062F5D196F8380041070BD5002C09DD71
:10077000B0682021A847B06038B1F06A401C641E00
:10078000F062F5D10020BDE8F0814FF0FF30BDE808
:10079000F0812DE9F8470D46A3B02F6B002F0646D8
:1007A000904648BF6FF000470FF63C1400F0C0FDC4
:1007B000D4E90023696B4018CDE90123812828BFC3
:1007C0004FF0FF3042D20024002F33DDD8F8001064
:1007D00001AA684600F006FD8146B9F1000F38D441
:1007E000D8F8000010B9B9F1010932D44F4521DB26
:1007F0006869484481280AD30021696303AA29460D
:100800003046FFF74BFF040014D40020686103ABAF
:10081000D5F814A04A46694603EB0A0000F08EFDA5
:10082000CA44C5F814A058F8040B002818BFA7EB59
:100830000907C9D14CB903AA29463046FFF72EFF54
:10084000044614B9002068616863204624B0BDE8FE
:10085000F0874FF0FF34F8E72DE9FC4707468C4658
:100860003E69BCF16F0F08BF082405D04CF0200092
:10087000782814BF0A2410243C25D7E90023BCF1B2
:10088000640F18BFBCF1690F9046994606D100214C
:100890008B4203DAD8F1000869EB49094FF0000AEE
:1008A000D14508BFD0451FD1386BE8B9082C4BD1D2
:1008B00097F83800010747D530203B2586F83B00E4
:1008C00042E000280ED597F8380000F014001028F8
:1008D00008D17B6B7969386A5B1A1B1A9A1A002A4D
:1008E000C8BF3A62BDE8F3878DF800C0404649466C
:1008F0002246E31700F076FD3032D0B26D1E3A2862
:10090000019504DB9DF80000A0F151018A18725591
:10091000404649462246E31700F064FD894680467A
:10092000D14508BFD04503D0F86871198842DDD39E
:10093000082C09D197F83800010705D5705D3028DB
:1009400002D06D1E30207055C5F13C02BA6171199C
:10095000F960386B8242B4DA821A3A624FF6EF706D
:10096000398F01403987BDE8F3872DE9D04306462A
:100970000F4614464FF00008DFF8389412E0E00705
:1009800007D542464B463046394600F043FE064600
:100990000F464046494642464B4600F03BFE641037
:1009A00080468946002CEAD130463946BDE8D083DE
:1009B0002DE9F34F054641F020048DB0D5E90089BB
:1009C000612C02AE09D0286B002848BF062003D452
:1009D00008BF672C01D101202863D5E90023580006
:1009E0004015401C0ED119030CD00320A8619DF8BE
:1009F000381061391A2902D20FF2F46111E00FF2B6
:100A0000F4610EE059004915491C0FD118030DD1AE
:100A10000320A8619DF8381061391A2914D30FF208
:100A2000DC61E868032200F089FCD3E1194621F07B
:100A30000043B3F5801F10460DD20027BB4208BF0C
:100A4000BA42019703D111E00FF2AC61E9E701AAC4
:100A500000F0B2FE0AE0DFF8607307EB1352DFF834
:100A60005C3301921940DFF858331943C5E900019E
:100A7000612C0ED1E86830210170821CEA609DF87B
:100A8000381061290CBF7821582141706869801C99
:100A90006861D5E900AB2BF0004300202AF000028A
:100AA000834204BF8242002300F05B81612C40F04E
:100AB000AA80286B002847BF21210091401C00908C
:100AC000009F7F1C404649460022002300F0ACFEF8
:100AD000D94601998DF8082038BF89F00049091FCF
:100AE000002FD04601910DF1090040F34981B3492F
:100AF000DFF8D0B20C91064640464946002200235A
:100B000000F0AAFE80F03B814800400D00F11C027D
:100B100011D0002A0FDD40F2FF70824205DB09F0A0
:100B2000004040EA0B01002013E00C98014041EA2C
:100B3000025140460DE029F00043002028F0000259
:100B4000834208BF82420FBF40461C22404600F04D
:100B50009BFE8046894600F035FFFF1F002F0446AC
:100B600009DD00F04DFF02460B464046494600F0C5
:100B700059FF80468946F01D072104E004F00F026A
:100B800000F8012D2411002C01DD491EF6D5491E67
:100B90005CBF002200F8012DF9D5ECE000201946D9
:100BA00002AA0A4400E05B1E12F80149491E844271
:100BB000F9D00F2804D10DF10900425C521C4254B7
:100BC000002904D50198001D02AE5B1C0190591E3E
:100BD00012D49DF838007218A0F13A07147804F185
:100BE00030085FFA88F43A2CA8BFB844491E02F8CE
:100BF0000189F3D58DF83800286B002840F1B080CA
:100C0000591E2963ACE0404649460022002300F00B
:100C10000BFE019938BF89F0004947F297504143D4
:100C2000694A91FBF2F20192D2F1070204DD4046DB
:100C30004946FFF79AFE0AE0524200206349FFF757
:100C400094FE02460B464046494600F05DFF804652
:100C5000662C286BDFF878B106BF019F0A3706279C
:100C60003F18142FC8BF142730208DF8080089467C
:100C70000DF1090000E03046002F34DD0646404605
:100C8000494601F065F801460A4606F108030420CA
:100C90000A26B2FBF6F606EB860EA2EB4E023032C7
:100CA00003F8012C0A22B6FBF2F202EB820EA6EB4D
:100CB0004E063036401E03F8026DE9D1083F002F82
:100CC00003F10806D7DD084601F056F802460B4648
:100CD0004046494600F0A6FE00225B4600F09AFC22
:100CE00080468946CBE70DF10901401A0DF109064E
:100CF00004E00199491E401E0191761C317830298B
:100D0000F7D0662C02D10199491C03E0652C0CBF79
:100D1000012100212B6BCB189842B8BF431E002B3A
:100D20001ED4834204DAF05C3528A8BF392000DAEB
:100D300030201946721E02EB010800E05B1E18F815
:100D40000199491E8145F9D0392802D1705C401CB7
:100D50007054002904D50198401C16465B1C019074
:100D6000019800B200901BB29DF838103246284618
:100D700000F034F82EE0C61D002F3FF7BDAE304620
:100D80000DF10901401A009903468842C8BF0B467D
:100D9000002B0DF109063FF52FAF8342BFF6FEAEE3
:100DA0000DF10900C15C07297FF7F8AE0F20F6E6C8
:100DB000CBCCCC0C0000244002FCFFFFFFFF0F80D7
:100DC0000000E03F0000F07FA08601000000F03F3F
:100DD00084D797410FB0BDE8F08F00002DE9F847A8
:100DE00083B006468A461746984600F0FDF9B8F1EA
:100DF000000F406A356B90F8009002DC4FF001085C
:100E0000BFA74AF02000BDF93040662808BF641C27
:100E100015D0672840F0848014F1040FC0F286805A
:100E2000AC4280F2838096F83800641C010702D43B
:100E3000A845B8BF454620B22D1A48BF00250FFA75
:100E400084FAF068B169BAF1000F25DC4A1C30233E
:100E50004354002D03DC96F83800010703D5F068F1
:100E600000F80290521C15EB0A0FB8BF6C4220B27A
:100E7000441941424445B8BFA046B26171620FFABD
:100E800088F5F561F068B3692A463946184400F0E0
:100E900055FA641BB462C4E022B29045084417DAE4
:100EA0004246394600F04AFAB0694044B061AAEBC4
:100EB0000801002D716203DC96F838100A0705D589
:100EC000F16801F80090F069401CF061B562A8E09B
:100ED000394600F033FAB069002D5044A8EB0408FD
:100EE00003DC96F838100A0703D5F16801F8009082
:100EF000401CB0610FFA88F08542F368B069B8BF52
:100F0000A8460FFA88F207EB0A01184400F016FA17
:100F1000B1690FFA88F00144B161281A706280E06B
:100F2000BAF1610F14D14FF0700A16E0A84504DA47
:100F300096F838100A0758BF45466D1E48BF002571
:100F4000BAF1670F14BF4FF0450A4FF0650A04E08D
:100F5000BAF1410F08BF4FF0500AB169F368481C5D
:100F6000B061002D17F8012B5A5403DC96F83810A5
:100F70000A071BD5F168431CB36101F80090002DEE
:100F800014DDA8F101080FFA88F039468542F768A8
:100F9000B8BFA8460FFA88F2F81800F0CFF9B06988
:100FA0000FFA88F108446D1AB0617562F068B16992
:100FB0000844002C80F800A003D42B224270811C2E
:100FC00003E02D2141706442811C00206A460AE042
:100FD00023460A2493FBF4F404EB8405A3EB4503B6
:100FE00002F8013B401C24B2002CF1DC012806DC95
:100FF0004AF02002652A04BF302201F8012B48B9CB
:10100000302001F8010B07E0401E1DF8003030339E
:1010100001F8013B0028F7DCF268B0691044091AB6
:10102000F16196F8380000F0140010280DD17269B3
:10103000B169706A8A18F1698218B06A8A188218D0
:10104000706B8242BCBF821A326204B0BDE8F08786
:10105000F8B505460E4617461C46002074B117F831
:10106000011BB068A847B06030B1F06A401CF06264
:101070000020641EF3D1F2BD4FF0FF30F2BD00003E
:101080007072696E74665F733A20256E20646973AE
:10109000616C6C6F776564007072696E74663A207B
:1010A00062616420256E20617267756D656E7400E3
:1010B0007072696E74665F733A2062616420257392
:1010C00020617267756D656E740000007072696EE4
:1010D00074665F733A2062616420256C73206172CC
:1010E00067756D656E740000000000000000000070
:1010F0006E616E004E414E00696E6600494E4600BC
:101100003000F0B40246106895681318506803EB7D
:101110005004C0071DD54D441BE013F8017B05F8B2
:10112000017B491EF9D1A0B1B60813F8011B06F0E6
:101130000306032E08BF13F8016B01EB0621494299
:10114000801C294405D011F8016B05F8016B401E85
:10115000F9D1A3420ED013F8016B16F0030104BFBE
:1011600013F8011BC91C30090F28DAD113F8010B41
:101170000F30D6E7F0BC02F10C0070471B487047F7
:1011800070B45368D418042B09DA41B1057804F817
:10119000015B10F8016B16B15B1C491EF3E753604D
:1011A00070BC704738B514461D4661B1FFF7E8FFC3
:1011B00061686A6B204690476FF00102811A02D085
:1011C000491E01D001E003E005E00021616032BD6D
:1011D0006FF0010032BD4FF0FF3032BDDA6B1047C7
:1011E000024BDFE7014BF9E7014870474800002058
:1011F000100000200278C9B28A421AB11CBF10F850
:10120000012FF9E718BF0020704730B4002513E024
:1012100050F8042BD30744BFA9F101039A18091F02
:10122000042942F8045BFAD213468C0744BF1580A8
:101230009B1CC90748BF1D7050F8041B0029E7D14B
:1012400030BC704780B500B906A005490B681BB1DA
:1012500022220021984701E000F09BFD222002BDE0
:101260004C040020636F6E73747261696E74206841
:10127000616E646C65723A20626164206D6573739F
:101280006167650000F10103810704D010F8011BBC
:10129000820781B1FAD10268A2F10131914311F0C4
:1012A000803104BF50F8042FF6E709BAB1FA81F192
:1012B00000EBD100401CC01A7047B1F5807F02D30B
:1012C0004FF0FF3070470170012070470078401EDA
:1012D0008041C043C00F7047C9B2830706D0521E79
:1012E00022D310F8013B9942F7D11FE0083A13D3FB
:1012F00002F1040241EA012141EA014150F8043BB4
:10130000121F21BF4B40A3F1013C2CEA030C1CF03F
:10131000803FF3D0C9B2001F083210F8013B521EC3
:1013200028BF91EA030FF8D818BF0120401E70476C
:1013300080B5FFF723FF006C02BD000062B38B078E
:1013400008D0521E11F8013B00F8013B00F0248048
:101350008B07F6D1830740F0208000BF103A07D3F7
:1013600030B4B1E83810103AA0E83810F9D230BCE7
:10137000530724BFB1E80810A0E8081044BF51F893
:10138000043B40F8043BD20724BF31F8022B20F87D
:10139000022B44BF0B7803707047121F17D35B00FA
:1013A00009D151F8043B20F8023B1B0C121F20F816
:1013B000023BF6D20BE051F8043B00F8013B1B0A5C
:1013C00020F8023B1B0C121F00F8013BF3D238BF80
:1013D000121D521E24BF11F8013B00F8013BF8D842
:1013E00070470000BBBBE1B1B2F5803F80F07E806A
:1013F000022A1ED98C46B1FBF2F102FB11C31B0479
:1014000043EA1043B3FBF2FC02FB1C3380B240EA18
:101410000343B3FBF2F002FB103240EA0C4000231E
:101420007047022A05D98446B0FBF2F002FB10C2D5
:1014300070474AB105D100F0010249085FEA300067
:10144000704700220023704700F0A6BC0B0002008A
:10145000002100207047904271EB030CF6D3B3F5E6
:10146000803F2FD2F0B5B3FA83F7B1FA81F4A7F138
:101470000F0E3D1B5340CEF1200602FA0EF2F3414F
:101480005340B5F10F0746D80F3C2C444140C4F1FE
:101490002006A040F1414140B1FBF3F603FB1611D9
:1014A000A2FB0645001BA94102D2761E80185941B5
:1014B00080EA010221FA0EF362FA0EF200215A408C
:1014C0003046F0BD30B4B1FBF3FC03FB1C11A2FBB2
:1014D0000C45001BA94103D2ACF1010C8018594105
:1014E00030BC02460B46604600217047B2F1807F57
:1014F00065D3F0B5B2FA82F7B1FA81F4C7F10F06FD
:101500003D1B22FA06F307F1110EF24120355A4035
:10151000B5F10F07B8D94140C4F12006A040F14110
:101520004140B1FBF3FC03FB1C11A2FB0C45001B6B
:10153000A94103D2BCF1010C801859410F2F12D3DD
:101540000F3FC90341EA5041B1FBF3F603FB16110B
:10155000A2FB0645D4EBC030A94102D2761E80180A
:10156000594146EACC3C07B34140C7F12006B84098
:10157000F1414140B1FBF3F603FB1611A2FB064516
:10158000001BA94102D2761E8018594180EA01024F
:1015900021FA0EF3C7F1200462FA0EF20CFA07F0FA
:1015A0005A402CFA04F13043F0BD80EA010221FADE
:1015B0000EF3002162FA0EF260465A40F0BD8C46EE
:1015C000B1FBF2F102FB11C31B0243EA1063B3FB50
:1015D000F2FC02FB1C331B024CEA002043EA1063BE
:1015E000B3FBF2FC02FB1C331B024CEA002043EA73
:1015F0001063B3FBF2FC02FB1C331B024CEA00201D
:1016000043EA1063B3FBF2FC02FB1C324CEA0020FD
:1016100000237047B0B581EA030C0CF0004C40F297
:10162000FF7515EA11541DBF15EA1357AC42AF42BE
:1016300039E0E41923EA455343F48013C90241F029
:10164000004141EA505EC7021100A7FB02020028D8
:101650004FF00000EEFB01204FF00001E3FB0721FB
:1016600018BF42F00102401800214941E3FB0E017E
:10167000A4F580640F0302D252004041494154F165
:1016800001046CDD470872F1004250F1000051EB9B
:101690000451A1F580115CBF41EA0C01B0BD4CEAD8
:1016A00005510020B0BD05EA1357AC4214BFAF424C
:1016B00041E050EA410E1CBF52EA430E02E061468F
:1016C0000020B0BD24423C441BD15FEA070EF6D097
:1016D000090302BF01460020AEF1140EB1FA81F7F2
:1016E000AEEB070401FA07FE0C37C7F1200100FA40
:1016F00007F7C8404EEA000E23EA455343F480132F
:10170000A2E733F00043B3FA83F704BFB2FA82FED4
:1017100077440B3FE41BB7F1200E2FBF02FA0EF304
:10172000BB40C7F1200E22FA0EFE38BF43EA0E037B
:10173000BA40641C82E750EA410E14BF52EA430EDD
:101740006FF000014FF4001717EB430F8ABF1946E3
:1017500017EB410FB5E74CEA05510020B0BDD4F1BD
:101760000104B4F120070FDAC4F12007520828BFA2
:1017700042F0010210FA07F501FA07F7E1BF2A4328
:10178000E0403843E1400FE0352C98DCC7F12004FD
:1017900052EA400220FA07F218BF42F0010231FA81
:1017A00007F0A1400A43002172F1004250F100000D
:1017B00051EB0C01B0BD000010B5144600F002F86A
:1017C000226010BDC1F30A5343B14A0012F5001F55
:1017D00028D2A3F2FE32A1EB0251704750EA410C2D
:1017E00020D001F0004C31EA0C01B1FA81F204BFC3
:1017F000B0FA80F3D2180B3AB2F120032CBF00FAF2
:1018000003F1914041EA0C013EBFC2F1200C20FAE5
:101810000CF319439040524240F2FD33D21A01EBCF
:1018200003517047002270474FF4001C1CEB410F1E
:1018300094BF1CEB430F09E041EA030C50EA4C0C47
:1018400052EA0C0C03D2994208BF9042704714BF71
:101850008B428242704700004FF4001C1CEB410F8A
:1018600094BF1CEB430F09E041EA030C50EA4C0C17
:1018700052EA0C0C03D28B4208BF8242704714BF5D
:101880009942904270470000124254D440F2FF7CCB
:101890001CEA11530FD0634531D09B1863453CBF00
:1018A00001EB0251704701F0004141EA0C51002068
:1018B000AFF30080704750EA410320D001F0004CA4
:1018C00091EA0C011CD0B1FA81F30B3B9A420DD97D
:1018D000D21A994051EA0C01C3F1200C20FA0CFCF9
:1018E00061449840531C40F2FF7CD7E7914041EAA5
:1018F0000C01C2F1200C20FA0CF319439040704700
:10190000B0FA80F31533202BE0D3202AEED3203A0F
:10191000203B9A4209D9D21A00FA03F141EA0C019C
:101920000020531C40F2FF7CB8E700FA02F141EAC4
:101930000C0100207047524240F2FF7C1CEA115318
:101940000DD06345DBD0B2EB030C3CBFA1EB0251E1
:1019500070470CF1010221EA035141F4801150EA71
:10196000410CCCD001F0004C352A27DC30B481EAA0
:101970000C01B2F1200309DAC2F12003044601FA96
:1019800003F5D0402843D1409C400CE0C3F1200235
:10199000450020FA03F418BF44F0010421FA03F0D3
:1019A00091400C43002174F1004550F1000051EBCF
:1019B0000C01244230BC7FF47BAF704761460020AD
:1019C00076E70000C1F30A5340F2FE329B1A14DDA1
:1019D000D3F120034FEAE17208DDC90241EA505118
:1019E00041F00040D84080185040704703F2E13089
:1019F00010B1D24382F000407047002070470000D1
:101A0000C11768B14840401AB0FA80F29040D21C29
:101A1000C907C2F5846241EA025202EBD0214005B7
:101A20007047000070B44FF0004591EA030F40F199
:101A3000B5816B40841A71EB030603D2001BB141E0
:101A4000121973414FF4001C1CEB410F34BF7CEBA7
:101A5000430442E00C0DA4EB1356352E4FDC45EA4F
:101A6000C323DB0A45EAC121C912B6F120050DDD09
:101A700063FA05F6EB4086EA0305124218BF45F00B
:101A80000105C01851F100010CD213E062FA06F50D
:101A9000F2405540F3415A40B340F3405A40801859
:101AA000594107D349085FEA30005FEA350528BF8E
:101AB00045F0010501F58011420875F1004250F131
:101AC000000041EB04514E0016F5001F70BC38BFFA
:101AD00070470020090D090570471CEB410F10D21B
:101AE00052EA43060BD0BCEB410F05D80C0DAB43BB
:101AF000661E342EB6DD02E0AB438018594170BC3F
:101B0000704770BC70470000F0B540F2FF7581EA85
:101B1000030C0CF0004C15EA11541DBF15EA1357C5
:101B2000AC42AF42E5E0BC41C1F31301C3F3130380
:101B3000801A994143F4801304D2641E4000494145
:101B400080185941C90241EA5051B1FBF3F603FB39
:101B50001611A2FB0675D7EBC020A94102D2761E52
:101B600080185941C90241EA5051B1FBF3FE03FB11
:101B70001E11A2FB0E75D7EBC020A94103D2AEF116
:101B8000010E80185941890241EA9051760546EAD2
:101B90008E2EB1FBF3F603FB1611A2FB0675D7EBF5
:101BA0008020A94102D2761E80185941C90241EA1B
:101BB00050514EEA060EB1FBF3F603FB1611A2FBE1
:101BC0000675D7EBC020A94102D2761E8018594174
:101BD000C90241EA5051B1FBF3F703FB1711A2FB15
:101BE0000735D3EBC020A94167F100070CBF0042C5
:101BF00047F0010766F3D5274FEA1E31B80814F500
:101C0000806412DDBD0775F1004250EB0E5051EBC0
:101C1000045111F5801F5CBF41EA0C01F0BD4CF08E
:101C20007F6141F0E0410020F0BDBD076D0840EA52
:101C30000E5041F48011D4F10104B4F120060ADA07
:101C4000C4F120060200E04001FA06F3E140184327
:101C5000B24015430EE0342C13DCC6F1200445EAF3
:101C600040056D0820FA06F2154321FA06F0A1405E
:101C70000D43002175F1004250F1000051EB0C01C1
:101C8000F0BD00205FEA0C01F0BDCFB992185B41B6
:101C9000B3FA83F704BFB2FA82F6BF190B3FB7F16C
:101CA00020062FBF02FA06F3BB40C7F1200622FA36
:101CB00006F638BF3343BA401CB1E419641E33E75B
:101CC0007F4231F00041B1FA81F404BFB0FA80F6EE
:101CD000A4190B3CB4F120062FBF00FA06F1A14075
:101CE000C4F1200620FA06F638BF3143A0403C1B61
:101CF0001AE7AC421ABF05EA1357AF4212E050EAA6
:101D000041061CBF52EA4306BFE750EA410730468E
:101D100061461CBF41EA0551F0BD52EA430C08BFC1
:101D2000C143F0BD00204FF4001616EB410F98BFE1
:101D300016EB430F08BF16EB410F24BFC14305E06C
:101D400016EB430F0CBF61464CEA0551F0BD000095
:101D5000400D491840EA81200CD2490DA1F580615F
:101D6000491C40F0004005DBD1F11F0154BFC840C1
:101D7000C017704700207047014648B1B0FA80F1A3
:101D80008840C91CC1F58461090501EBD0214005DB
:101D90007047012000F0B8B870470000841A71EB5A
:101DA000030604D26E40001BB141121973414FF477
:101DB000001C1CEB410F34BF7CEB430683E00C0D91
:101DC000A4EB1356362E00F37C80012E45EAC32384
:101DD00041DC43EA525312BFD20292025B0824054F
:101DE00045EAC12141EA5051D2EBC020994125D4A6
:101DF00007D1B0FA80F610FA06F162D00020203642
:101E000008E0B1FA81F6B140C6F1200220FA02F2F0
:101E10001143B0404FEAF474B4EB465434F0010679
:101E20004FEA74040AD8D6F50016760D04F0004483
:101E3000F04061FA06F25040F1404840C00A40EAE2
:101E4000415021F0004128BF5FEA500550F10000E9
:101E500044EBD12135E0DB0A45EAC121C90AB6F1DC
:101E600020050EDD42EA0242120CC5F1200603FAFB
:101E700006F6EB4042EA06056D42984161F1000129
:101E80000DE062FA06F5F240554063FA06FC82EA7C
:101E90000C02F3405A406D42904161EB030111F492
:101EA000801F05D1641E620502D06D00404149418A
:101EB00021F48011430875F1004350F1000041EB1B
:101EC000045170BC70471CEB410F15D223F0004346
:101ED00052EA43060BD04FEA4C0CBCEB410F04D83E
:101EE0000C0D661E342EB7DDEBE7801A994150EADF
:101EF000410608BF0021E4E708BF1CEB430F28BFE1
:101F00006FF00001DDE7000080B5AFF30080024A0A
:101F100011001820ABBEFBE72600020070B50400DC
:101F200001D1012070BD0020A06204F15C05687839
:101F300020B900212970204600F061FC0220687061
:101F400000F012FCE168B1F5E06F04D90022B1F5B0
:101F5000706F03D104E04FF4805201D00020A062E2
:101F6000206B30B9B1F5E06F87BF022020630121FB
:101F700021636368A06821692668034360690B4395
:101F8000A169034301F40071E0690B43216A034333
:101F9000A06A0B4303433360A369606A616B1B0C47
:101FA00003F004030343E0680B4303431A4323682D
:101FB0005A602068C16921F40061C1610020686035
:101FC0000121697070BD2DE9F843044604F144060F
:101FD0000027307E01280D469146984608BF022012
:101FE00000F0AA800120307600F090FC717E01297B
:101FF00018BF02274ED1290018BFB9F1000F00F019
:10200000958003227276F761A163A4F83C90A4F84E
:102010003E90276437807780F760B760A268B2F59A
:10202000004F04D12268136843F480431360226890
:1020300013685D0600F01FF940F20175E3686268FD
:10204000AB4228D3002A1CBFE28F012A06D12268A6
:1020500031F8023BD360E38F5A1EE287894605467A
:1020600005E039F8021BC160E08F411EE187E08F77
:10207000002849D0206881688A07F2D4B8F1000F9F
:1020800007D018F1010FF2D000F040FC401B404592
:10209000EDD303274BE0002A1CBFE28F012A09D1B0
:1020A0002268E38F022B08D331F8025BD560E28F00
:1020B000931EE387894605460BE011F8015B157313
:1020C000E28F531EF5E739F8021BC160E08F811ED5
:1020D000E187E08FC0B1206881688A0708D5E18F69
:1020E0000229F0D219F8012B0273E08F411EEFE7AD
:1020F000B8F1000FCDD018F1010FEAD000F006FCC6
:10210000401B4045E5D3C4E72A46414600F0C2F9EA
:1021100008B12020F061A06830B900972168CA6832
:10212000009289680091009AF06900B101270120AE
:102130007076002131763846BDE8F2832DE9F84308
:10214000002605460C466868B0F5827F04BFA86883
:1021500000289146984605F1440709D104267E7669
:10216000CDF800804B462246284600F08AF880E0F1
:10217000387E012808BF02207BD00120387600F08D
:10218000C5FB797E012918BF02266DD1002C18BF2E
:10219000B9F1000F67D004217976FE612C64A7F8AD
:1021A0000090A7F80290AE63AE87EE87BE60FE6037
:1021B0002A68EB6840F201718B4253682CBF23F40C
:1021C000805343F480535360AA68B2F5004F04D1A2
:1021D0002A68136823F4804313602A6813685B0637
:1021E00000F049F8A146EA688A42444680461ED279
:1021F00005E0007B09F8010B79884A1E7A8078880F
:1022000038B328688168CA07F3D444B114F1010FC8
:10221000F5D000F07BFBA0EB0800A042EFD3032633
:1022200022E0C06829F8020B79884A1E7A807888F3
:1022300078B128688168CA07F3D4002CEFD014F174
:10224000010FF4D000F062FBA0EB0800A042EED337
:10225000E5E728464246214600F037FA08B120203B
:10226000F861F86900B101260120787600213976FD
:102270003046BDE8F28303D4136843F04003136093
:1022800070472DE9F84F074607F144060124307ED8
:1022900000250128884691469A4608BF022000F092
:1022A000E980347600F032FB717E0129834609D043
:1022B0007868B0F5827F02BFB8680028042901D091
:1022C0000225D2E0B8F1000F1CBFB9F1000FBAF13E
:1022D000000F00F0C980707E04281CBF05217176B4
:1022E000F561C7F84090A6F802A0A6F800A0C7F8CC
:1022F0003880A7F83EA0A7F83CA0B560F56040F292
:102300000171F86888423CBF7288022A04D3386899
:10231000426822F4805203E03868426842F48052F6
:10232000426038680268530603D4026842F04002F3
:102330000260FA687868DDF828A08A4239D300285C
:102340001CBFF88F012806D1386838F8021BC1601D
:10235000F98F481EF887F88F002804BF708800287E
:1023600078D0002C1CBFF88F00280AD0386881680C
:102370008A0706D538F8021BC1600024F88F411E79
:10238000F987708850B138688168CA0706D5C06877
:1023900029F8020B012471884A1E72801AF1010F7C
:1023A000D9D000F0B3FAA0EB0B005045D3D30325EE
:1023B0005BE000281CBFF88F012836D13868F98F00
:1023C000022902D300F05EF801E000F055F8F98729
:1023D0002BE000F051F8F98700247088E0B13868EC
:1023E0008168CA0718D5718802290ED3C06829F8F8
:1023F000020B71888A1E7280708802280BD238689E
:10240000416841F48051416005E0007B09F8010B0F
:1024100071884A1E728001241AF1010F05D000F064
:1024200075FAA0EB0B005045C1D2F88F002804BF0D
:10243000708800280ED0002C1CBFF88F0028CCD04C
:10244000386881688A07C8D5F98F0229C1D300F09E
:1024500019F8C0E7384651465A4600F06AF908B103
:102460002020F061F06900B1012501207076002183
:1024700031762846BDE8F28F18F8012B0273F88FE9
:10248000411E704738F8022BC260F88F811E7047DA
:1024900002466421204600F04CB97CB5044622680F
:1024A0005168936803F04100012806D1480604D51D
:1024B000E16C2046BDE87C400847980706D50D062C
:1024C00004D5216D2046BDE87C40084713F4B07F59
:1024D0005CD088065AD55D060ED594F85D000328B9
:1024E00047D0206E40F00400206600250095D66895
:1024F00000969568009500989D060CD5206E40F0DA
:10250000010020660025009596680096106820F06E
:1025100040001060009AD80509D5226E42F00802EA
:10252000226600200090226890680090009A206E39
:1025300060B32068426822F0E0024260012011F09E
:10254000030F84F85D001CD020680FF24505416838
:10255000890889004160A06D18B14563A06D00F045
:10256000DBF9606D90B14563606DBDE8764000F0C9
:10257000D3B900200090D168009192680092009831
:1025800073BD2046BDE8764000F0EBB973BD000096
:10259000406A00F13E0100220A810A8000F0E1B9A0
:1025A0002DE9F041069F05460E4690461C462868D8
:1025B00081683140B1420CBF01200020404530D03D
:1025C00014F1010FF3D024B100F0A0F9C01BA04218
:1025D000EDD32868416821F0E00141606868B0F5FA
:1025E000827F0BD1A868B0F5004F18BFB0F5806F9F
:1025F00004D12868016821F040010160A86AB0F5A3
:10260000005F09D12868016821F400510160286841
:10261000026842F40052026005F15C0000F04FF8DD
:1026200000E00020BDE8F0812DE9FC41089F06464E
:10263000884614461D463068816808EA0101A142B7
:102640003AD0B8F5C06F08BF002C04D1007B8DF8DC
:1026500000009DF8001015F1010FECD025B100F03D
:1026600055F9C01BA842E6D33068416821F0E0016B
:1026700041607068B0F5827F0BD1B068B0F5004F53
:1026800018BFB0F5806F04D13068016821F04001B7
:102690000160B06AB0F5005F09D13068016821F4CB
:1026A000005101603068026842F40052026006F195
:1026B0005C0000F004F800E00020BDE8F681012194
:1026C000417000220270032070477CB504460D461D
:1026D0006068B0F5827F164608D1A068B0F5004F5B
:1026E00018BFB0F5806F01D100F03EF800F014F88B
:1026F00068B96068B0F5827F0CD1A068B0F5004F72
:1027000018BFB0F5806F05D100F00CF810B100F0E3
:1027100025F876BD002076BD00962B46002280214C
:1027200020463DE700962B4600224FF4C06120462C
:102730007AE77CB50D461646044600962B460022E5
:102740004FF4C051FFF770FF28B9FFF7E5FF10B94C
:10275000FFF7E8FF08B100F001F876BD206E40F009
:1027600020002066032070472068016821F04001A6
:10277000016070470000000080B55E48016841F0CC
:1027800001010160026802F00102009200994268B2
:1027900042F080524260406800F080500090009803
:1027A000032000F0ECF8002200216FF00B0000F095
:1027B000F3F8002200216FF00A0000F0EDF800228B
:1027C00000216FF0090000F0E7F8002200216FF00F
:1027D000040000F0E1F8002200216FF0030000F097
:1027E000DBF8002200216FF0010000F0D5F8BDE811
:1027F0000840002200214FF0FF3000F0CDB8006803
:102800003D49884200D0704780B53A4886B002689A
:1028100042F480520260E021006800F48050009091
:1028200002220098019102920021039103220521C6
:102830000591049201A94FF0904000F005F90022A3
:102840000F21232000F0A8F823204EE000682B4938
:10285000884200D0704780B52648026842F4802242
:1028600002600022006800F4802000900F21009890
:102870001A2000F091F8BDE802401A2000F0A9B833
:1028800000681F49884200D0704780B51D4886B057
:10289000026842F4003202604FF40041006800F424
:1028A00000300590022205980091019200210291CA
:1028B000032207210491039269464FF0904000F0F3
:1028C000C3F8082100910222002102910192072100
:1028D00003220491039269460B4800F0B5F80022E8
:1028E0000F21262000F058F8262000F072F807B0DB
:1028F00000BD0000181002400030014000480140B7
:10290000004400401C100240000400480148406898
:10291000704700BF0000002038B590F82110002457
:10292000022900F1340203D004205060012416E093
:1029300001680B6823F00E030B60012301680D682A
:102940006D086D000D60D16895688B406B6001214A
:1029500080F8211080F82040116801B18847204696
:1029600032BD70470901020006D52F4A00F00F0062
:10297000104400F8041C70472C4B195470472C4B22
:1029800019684FF6FF020002114000F4E0600843AE
:10299000284908431860704738B5254B1C68C4F3B4
:1029A0000223C3F10704052C28BF04241D1D072D95
:1029B00034BF0023DB1E012505FA04F4641E214008
:1029C000994005FA03F35B1E1A401143BDE83440F9
:1029D000C8E7012200F01F01174BFFE78A404009BA
:1029E00043F82020704710B5401EB0F1807F01D31E
:1029F000012010BD114C60600F214FF0FF30FFF738
:102A0000B1FF0021A16007202060002010BD042834
:102A10000A4904D1086840F00400086070470A6859
:102A200022F004020A60704718ED00E000E400E0C4
:102A30000CED00E00000FA0500E100E010E000E02D
:102A400000F000B8704700002DE9F84700266B4AF7
:102A50000F230446884632E0694DAC4214BF052579
:102A600004258D4045EA0E054CF82750C7436549BB
:102A70000D6800F0B3F8ED0348BF40EA0C0CC1F854
:102A800000C04D6800F0AAF8AD0348BF40EA0C0C46
:102A9000C1F804C08D6800F0A1F8ED0248BF40EA1B
:102AA0000C0CC1F808C0CD6807EA050CD8F8047012
:102AB000BD0248BF40EA0C0CC1F80CC0761CD8F827
:102AC000001031FA06F000F087800127B74017EABE
:102AD0000100F3D0D8F80450B100022D18BF122D18
:102AE00012D1F50804EB850C01F01C05DCF820E0A0
:102AF000D8F810A003FA05F92EEA090E0AFA05F52E
:102B000045EA0E05CCF820504FEA460C4FF0030E74
:102B1000256898F804900EFA0CFE6FEA0E0E09F084
:102B200003090EEA050509FA0CF949EA05052560CD
:102B3000D8F80450012D18BF022D03D0112D18BF55
:102B4000122D13D1A568D8F80C900EEA050509FAE4
:102B50000CF949EA0505A560656825EA0707D8F874
:102B60000450C5F30015B5402F436760E7680EEACF
:102B70000705D8F8087007FA0CF73D43E560D8F868
:102B80000450EF009AD51568DFF87CC045F00105C8
:102B9000156001F00C01176807F00107009703FAB0
:102BA00001FE009FB7085CF8275025EA0E0EB4F12D
:102BB000904F08BF00250ED0144DAC4208BF012530
:102BC00009D0134DAC4208BF022504D0114DAC42D0
:102BD0007FF442AF032544E7BDE8F18707EA050C1F
:102BE000D8F8045070470069084018BF0120C0B2EF
:102BF00070470AB1816170478162704718100240C6
:102C00000010004800040140080001400004004892
:102C100000080048000C00481CB58DF80000044670
:102C2000052301226946DFF8B00500F0F7FB2046D6
:102C300016BD38B500F04AFE00F0F5F900F033FAA1
:102C4000DFF89845DFF8980560604FF46121A160D6
:102C50000020E060206160610C21E0612062606220
:102C6000A062A161201D00F099FB00B1FEE7606841
:102C7000DFF87045016841F0200101604FF4827176
:102C8000DFF86405206061604FF4E060E0600221DD
:102C90000120606121612020E061002207204FF4C3
:102CA0000071E062A260A16122626262A26222639C
:102CB00062632046FFF732F900B1FEE7DFF82C052A
:102CC0006066BF21A1660020E06640F2E7316067E0
:102CD000A067E067216704F1640000F009FE00B11D
:102CE000FEE704F1640000F010FE0FF2E0500FF276
:102CF000986500F073FE02220021072000F082FE9A
:102D000001460FF2D45000F069FE00F00FFF00F012
:102D100085F901460FF2C85000F060FE0223002240
:102D200048F20101102000F0D2FE00F077F90146D0
:102D30000FF2C45000F052FE00F06BF901460FF2A2
:102D4000D05000F04BFE022300224FF4726120208D
:102D500000F0BDFE00F05DF901460FF2C85000F032
:102D60003DFE00F051F901460FF2CC5000F036FE66
:102D7000022300227421282000F0A9FE00F044F96B
:102D800001460FF2C85000F029FE00F038F9014664
:102D90000FF2CC5000F022FE022300224FF400413B
:102DA000012000F094FE00F02AF901460FF2C45011
:102DB00000F014FEA43400F01BFF60601CE000F083
:102DC00031FFDFF82C24DFF82C340BE043F64D21E3
:102DD000884210EE100AF2D200F024FFDFF8182427
:102DE000DFF81834FEF716FCFEF7ECFD0146284626
:102DF00000F0F4FD00F0ACF900F0B5FE00F0C3FE09
:102E0000206001466068081A40F2A64200EE100AEF
:102E10009042B8EE400A06D200F0EDF8DFF8E02369
:102E2000DFF8E033DEE740F62801884206D200F002
:102E3000E2F8DFF8D423DFF8D433D3E740F60D31DE
:102E4000884206D200F0D7F8DFF8C423DFF8C43395
:102E5000C8E740F67C51884206D200F0CCF8DFF893
:102E6000B823DFF8B833BDE740F6CD71884206D20B
:102E700000F0C1F8DFF8A823DFF8A833B2E741F289
:102E80000421884206D200F0B6F8DFF89C23DFF870
:102E90009C33A7E741F23E41884206D200F0ABF8EE
:102EA000DFF88C23DFF88C339CE741F271618842B4
:102EB00006D200F0A0F8DFF88023DFF8803391E736
:102EC00041F68B01884206D200F095F8DFF87023B6
:102ED000DFF8703386E741F6B021884206D200F071
:102EE0008AF8DFF86423DFF864337BE741F6DA41E0
:102EF000884206D200F07FF8DFF85423DFF854331D
:102F000070E741F6F461884206D200F074F8DFF809
:102F10004823DFF8483365E742F2FC01884206D2D5
:102F200000F069F8DFF83823DFF838335AE742F267
:102F30001F31884204D200F05EF8CB4ACB4B51E7F8
:102F400042F23051884204D200F055F8C84AC94BC9
:102F500048E742F25571884204D200F04CF8C64A64
:102F6000C64B3FE742F66511884204D200F043F8B1
:102F7000C34AC44B36E742F67D31884204D200F0A2
:102F80003AF8C14AC14B2DE742F69851884204D223
:102F900000F031F8BE4ABF4B24E742F6B2718842D6
:102FA00004D200F028F8BC4ABC4B1BE743F2DC110A
:102FB000884204D200F01FF8B94ABA4B12E743F234
:102FC000EB31884204D200F016F8B74AB74B09E754
:102FD00043F21361884204D200F00DF8B44AB54BB5
:102FE00000E743F631018842BFF4F0AE00F003F889
:102FF000B14AB24BF6E610EE100A00F013BE022200
:103000000021012000F0FEBC02220021282000F057
:10301000F9BC02220021202000F0F4BC0222002191
:10302000102000F0EFBC80B59CB002210122059178
:103030000992102102220A910C9200214FF42012D1
:103040000D910E9205A800F011FE00B1FEE70221DD
:1030500001910F204FF480610090002203910292B1
:1030600004920121684600F085FF00B1FEE70221CD
:1030700000220F9112920FA801F076F800B1FEE73E
:1030800001F034F84FF47A71B0FBF1F0FFF7ABFCCC
:103090000420FFF7BCFC002200214FF0FF30FFF7B7
:1030A0007BFC1DB000BD10B58548864C86B001681C
:1030B00041F480010160026802F4800205920599E2
:1030C000026842F400320260036803F4003305939F
:1030D0000599026842F4802202600122006800F42F
:1030E000802005901021059B4FF09040FFF781FD57
:1030F000012210214FF09040FFF77BFD102100F0DE
:103100001FF84FF09040FFF79FFC022100F018F8E5
:103110002046FFF799FC00F00BF82046FFF794FCDF
:1031200000F006F84FF09040FFF78EFC06B010BD9F
:103130000421009100220192029203926946704795
:10314000009101220021029103910192694670478A
:1031500010B55D4C2078012825D160780021401CF5
:10316000C2B2052A217060701CDAC0B2042819D8D6
:10317000DFE800F019191903150004215148FFF781
:1031800032FD002806BFA078401C0020A070A07867
:10319000052808D1BDE810407DA000F01FBCBDE8A7
:1031A000104001E0617010BD10B50C4C2078012872
:1031B00010D16078401C6070C0B207280ADB6288BA
:1031C000642304F17401201D00F028F9002121700E
:1031D0006170618010BD0000DC000020D80000207C
:1031E000004400404C0300200030014000480140F2
:1031F000A3923A014D84C53FDC7EF964C570C53F9A
:10320000AFEDED96E480B53F2F8672A25D85B83FA5
:103210000394861A8524BB3F448B6CE7FBA9BD3F12
:103220007AC37DE4D6A4BF3F65C22FF5F3A6C03FA5
:10323000C66E9F55664AC13F2288F37002D3C13FD4
:1032400057CEDE196D55C23F5CC98E8D40BCC23F62
:103250000057B2632310C33F84622B685A62C33F96
:1032600086200725CCB4C33FA3CD716E13EEC33FB8
:10327000B41F2922C32AC43F0A0F9A5DF756C43FE0
:10328000C95A43A9BD88C43F4D874ECFBBB1C43F87
:103290005C21ACC612D6C43FBADA8AFD65F7C43FDA
:1032A000350A4966F50EC53F06A051BAF42FC53F51
:1032B00064ADA1D45E44C53F26016A6AD95AC53FB0
:1032C000141002400004004850040020554152549C
:1032D000205345540D0A000025780D0A0000000017
:1032E0004348414E4E454C204245464F5245203AB8
:1032F0002025780D0A0000004348414E4E454C20E1
:103300004146544552203A2025780D0A000000001D
:103310005345545550204245464F5245203A2025AA
:10332000780D0A00534554555020414654455220CB
:103330003A2025780D0A000046494C544552204257
:1033400045464F52452025780D0A000046494C5409
:1033500045522041465445522025780D0A00000070
:103360004144434D4F4445204245464F5245202558
:10337000780D0A004144434D4F4445204146544591
:10338000522025780D0A000025646B670D0A0000A5
:1033900048616C6C204972710D0A000038B5040058
:1033A00009D004F16805697809B900F028F800F03F
:1033B0000DF8012801D1012032BD606A08B100F08A
:1033C00023F800F014F821F02A0109E024216970A3
:1033D00020680268520852000260204600F0CCB813
:1033E000816000F014F8BDE8324000F010BA2068A7
:1033F000416821F490414160206881687047002055
:1034000028702046FFF73CBA204600F09DB920689E
:10341000016841F001010160204670472DE9F84341
:10342000054605F150078846787E202814461E463A
:1034300037D1B8F1000F14BF002C012032D0387EF4
:1034400001282ED0012139760020F86121217976DA
:10345000FFF75CFA3C8081467C8005E038F8020B7F
:103460002968C0F3080008857888E8B17888411E8B
:10347000798000964B4600228021284600F0F4F91E
:10348000D8B9A868B0F5805F04BF28690028E5D0E6
:10349000286818F8011B0185E6E72021797638763F
:1034A00000E00220BDE8F28300964B460022402156
:1034B000284600F0D9F90028EFD00320F2E72DE9E3
:1034C000F843054605F158070C46B87C20281646F7
:1034D000984647D1002C14BF002E012043D0387CE1
:1034E00001283FD001213974002078612221B9746C
:1034F000FFF70CFA3E8081467E80FF21A868B0F578
:10350000805F04D1286928B940F2FF1102E028B990
:10351000286908B9B98001E07F20B880BE8804E03E
:103520002868818C314024F8021B7888E8B17888BB
:10353000411E7980CDF800804B460022202128468C
:1035400000F092F908B103200DE0A868B0F5805FA3
:1035500004BF28690028E3D02968888C304004F82B
:10356000010BE2E70220BDE8F2832020B8740021BD
:1035700039740020F7E70000F8B50446694826686A
:103580003768A168074020690F4361690743E06914
:103590000F430743376010227168E06821F44051FF
:1035A000014371600023B768A169206A27F430677E
:1035B00000250F435C4907438E42B7605B480AD140
:1035C000006800F0030003283BD8DFE800F0022683
:1035D0003914012235E056498E420ED1006810F4AC
:1035E00040304FD0B0F5803F17D0B0F5003F27D026
:1035F000B0F5403F25D1022223E04E498E420ED144
:10360000006810F440203DD0B0F5802F05D0B0F513
:10361000002F15D0B0F5402F10E0042211E04649EC
:103620008E421FD1006810F440102BD0B0F5801FDF
:10363000F3D0B0F5001F03D0B0F5401FDBD000E0A1
:103640000822E069B0F5004F40D142B1012A1BD0F9
:10365000022A1CD0042A1FD0082A26D02CE000F011
:1036600048FD1BE035498E42EBD1006810F4400064
:1036700008D0B0F5800FD0D0B0F5000FE0D0B0F595
:10368000400FDBE70022DCE700F03BFD06E060686E
:103690002B4901EB50010CE000F004FD61684A0881
:1036A00002EB4002B2FBF1F307E06068410801F56C
:1036B0008031B1FBF0F300E001254FF6F0711940C5
:1036C000C3F3420001432068C16029E042B1012AEE
:1036D00009D0022A0AD0042A0DD0082A16D01EE0EA
:1036E00000F007FD09E000F00CFD06E060681549F8
:1036F00001EB50010EE000F0D5FC616800EB5100D9
:10370000B0FBF1F0216880B2C86009E06068410850
:1037100001F50041B1FBF0F080B2F06000E001255E
:103720002846F2BDF369FFFF003801403010024027
:103730000044004000480040004C00400050004061
:103740000024F40000127A0090F82410CA0706D56D
:1037500002685368816A23F400330B43536090F886
:1037600024108A0706D502685368C16A23F480339F
:103770000B43536090F824104A0706D5026853683B
:10378000016B23F480230B43536090F824100A0745
:1037900006D502685368416B23F400430B43536022
:1037A00090F82410CA0606D502689368816B23F44A
:1037B00080530B43936090F824108A0606D5026864
:1037C0009368C16B23F400530B43936090F824106B
:1037D0004A0610D502685368016C23F480130B432A
:1037E0005360036CB3F5801F05D15368416C23F41B
:1037F000C0030B43536090F824100A0606D50168F5
:103800004A68806C22F4002202434A607047F8B58F
:10381000044604F16805002068606FF07E47FFF7FA
:1038200075F80646206801680A0708D500973346F0
:1038300000224FF40011204600F016F860B920680D
:1038400001684A070AD50097334600224FF48001E9
:10385000204600F009F808B10320F2BD202068706E
:10386000A87000202870F2BD2DE9F041069C0546A5
:103870000E4690461F462868C1693140B1420CBFD0
:1038800001200020404518D114F1010FF3D024B1DC
:10389000FFF73CF8C01B8442EDD22868016821F490
:1038A000D071016000F00CF805F168002021417032
:1038B000817000210170032000E00020BDE8F0814C
:1038C00028688168490849008160704780B50748C9
:1038D000016841F0100101600320FFF750F800205B
:1038E00000F00CFDFEF748FF002002BD0020024062
:1038F00038B5040001D1012032BD00F01FF818B91D
:1039000000F018F8FEF7A2FF0AE00068C16841F075
:103910000101C160026842F00102026000207047AC
:1039200002206870211D206800F00CF801206870EA
:10393000002032BD002129702046704704F13C056B
:1039400068787047F0B5DFF87CE003681E4C1F4DC7
:103950001F4E204FDFF880C0704518BFB0F1804F78
:1039600003D0604518BFB84209D14A6823F07003FC
:10397000134370451CBFB0F1804F604507D0B8427B
:1039800018BFB04203D0A84218BFA04203D1CA68F2
:1039900023F4407313434A6923F080031343036005
:1039A00070458B68C36218BFB0420A68826203D058
:1039B000A84218BFA04201D10969016301224261F6
:1039C000F0BD0000002C01400048014000440140CF
:1039D0000040014000080040000400400EB4C0B5A3
:1039E000024603A800210190009101AB0121044887
:1039F00078440C30FCF7C8FB06BC5DF810FB00BF38
:103A00000B0B00002DE9F84F0C4684B0154602A9B7
:103A10000022CDE90022C1E9002200F03F0040F081
:103A200040088DF8008000F099F805F1010B002C9A
:103A300014BF5E462E46761CDFF8D8A10A23B2B228
:103A400069465046FEF7BFFA074600F086F8002F99
:103A50000DDC002200F082F80A23B2B2694650461B
:103A6000FEF76CFB074600F078F8002F01DD3846C2
:103A70001EE0AE1CA91C012C02A804D100F01BF80A
:103A800000F08EF805E0022C07D100F014F800F0E9
:103A9000A3F810B16FF001000AE00020012105E059
:103AA0001DF80120491C02EB0020C9B25945F7DB83
:103AB00005B0BDE8F08F8DF8088001221DF80230B6
:103AC0008354521CD2B2B242F8DBC9B270477CB503
:103AD0001D4600230026CDE90036144600F03F00C5
:103AE00000228DF8000005E0D3B2EB1A521C0DF84D
:103AF00003100912D0B2A842F6D3200007D0691CE7
:103B0000C9B2684600F04CF80DEB05014870002280
:103B100000F024F8002C14BFAD1C6D1C0A23AAB2BF
:103B200000F016F800F018F8204676BD3EB500BF4C
:103B30003AA30022D3E90045CDE9004500F00EF894
:103B40000A23082200F004F800F006F820463EBDE3
:103B500069463048FEF737BA0446012210214FF07B
:103B60009040FFF746B880B5012200210020FFF702
:103B700049FFC01100F0010080F0010041B20029AE
:103B8000F2D040B202BD10B50022FFF7E7FF0322DA
:103B900000210420FFF736FFFFF7DEFF204610BDAF
:103BA00070B50246002012E0802304061678E40F68
:103BB00013EA060518BF01254000AC4218BF80F08B
:103BC00007005B08DCB2002CEFD1521C491ECBB2BF
:103BD000002BE9D1C0B270BD0246002003E012F80C
:103BE000013B5840491ECBB2002BF8D1C0B2704700
:103BF00038B50024084DFFF7B6FFFFF7C4FF29686A
:103C0000641C4118E0B20A282960F4DBE4B2B1FB7D
:103C1000F4F032BD4C03002048040020FFFFFFFFFA
:103C2000FFFFFFFFC0F3C75181B1FF2906D0C110CC
:103C3000400721F0E04101F16051704741020CBFA3
:103C400040F4E0016FF000410020704700F00041B7
:103C500000020AD0B0FA80FC00FA0CF001F16051C9
:103C6000A1EB0C5101EBD021400570472DE9F84341
:103C70000446DFF8A4542078C10740F1DB8068686F
:103C800000F00C00042807D0686800F00C00082839
:103C90000AD16868C10307D500F067F93DD06068B4
:103CA00000282CD1012050E16068B0F5803F04D19C
:103CB000286840F48030286014E008B928680AE0D9
:103CC000B0F5A02F286806D140F48020286029682C
:103CD00041F4803105E020F480302860296821F427
:103CE00080212960E86AA168000941EA0010E862C1
:103CF000606868B1FEF70AFE064600F036F940F04B
:103D00009980FEF703FE801B6528F6D303201CE193
:103D1000FEF7FCFD064600F028F900F08B80FEF768
:103D2000F5FD801B6528F6D3F0E7FEF7EFFDC01B1D
:103D3000022840F2AE80E9E7206970B101213160CC
:103D4000FEF7E4FD074600F00BF940F08D80FEF72A
:103D5000DDFDC01B0228F6D9D8E73060FEF7D6FD9E
:103D6000074600F0FDF800F08680FEF7CFFDC01B8F
:103D70000228F6D9CAE70860FEF7C8FD074600F03A
:103D80008BF900F08A80FEF7C1FDC01B0228F6D92E
:103D9000BCE708B9286A09E00528286A06D140F07E
:103DA00004002862286A40F0010005E04008400055
:103DB0002862286A20F00400286241F28938E0680D
:103DC00070B1FEF7A3FD8146286A00F066F940F065
:103DD0009480FEF79BFDA0EB09004045F4D395E7E6
:103DE000FEF794FD8146286A00F057F900F08580BF
:103DF000FEF78CFDA0EB09004045F4D386E7FEF703
:103E000085FDC01B022840F28B807FE7FEF77EFD18
:103E1000001B022840F2948078E700F098F80446EE
:103E200000F099F800F09080FEF770FD001B02286A
:103E3000F6D96BE72078DFF8EC6281071BD568685C
:103E400010F00C0F09D0686800F00C0008287FF40F
:103E500073AF6868C1033FF56FAF00F081F81CBF16
:103E6000206901287FF41EAF2868616920F0F800FE
:103E700040EAC1002860207801070ED5A069DFF86C
:103E8000A81200283FF477AF01220A60FEF73EFD3A
:103E9000074600F001F93FF448AF2078410731D5DB
:103EA000E8690027C10009D4E86940F08050E86162
:103EB0000127E86900F0805000900098DFF86C82DC
:103EC000D8F80000C10513D4D8F8000040F4807081
:103ED000C8F80000FEF71AFD8146D8F80000C105B9
:103EE00006D4FEF713FDA0EB09006528F5D30DE716
:103EF000E06801287FF44DAF54E71FB1E86920F076
:103F00008050E861E069F8B1696801F00C010829A6
:103F10003FF4C8AE02287FF480AF00F018F80746DF
:103F200000F019F87FF46BAF6A68606A216A22F4C6
:103F3000741202430A436A60012000F009F8044643
:103F400000F009F83FF462AF0020BDE8F2830020E2
:103F50003066FEF7DBBC2868C0F34060002870477D
:103F60002868C0F34000002870472868C0F340402C
:103F7000002870472DE9F8436D4F0546386889469B
:103F800000F00700484502D200F07CF86ED1287896
:103F9000614C810705D56268A86822F0F0020243EF
:103FA00062602978C80759D56968012903D120685A
:103FB000C0F3404004E00229206803D1C0F3406010
:103FC00018B953E000F069F850D06068800841EA01
:103FD0008001616041F28938FEF798FC0646686806
:103FE00001280BD1606800F00C00042836D0FEF7E1
:103FF0008DFC801B4045F5D303202DE0022837D1EE
:10400000606800F00C00082828D0FEF77FFC801BB9
:104010004045F5D3F0E72878410705D56268E868A0
:1040200022F4E062024362602978080706D56168DD
:10403000286921F4605141EAC001616000F032F862
:1040400061683C4AC1F30311515C344AC8401060B6
:10405000002000F053F90020BDE8F283386800F03A
:1040600007008145D7D200F00DF8D4D00120F3E746
:10407000606810F00C0FF1D0FEF748FC801B404543
:10408000F6D3B9E73968C90849EAC1013960386827
:1040900000F0070048457047686AC0F340000028F8
:1040A0007047000030B524490A6802F00C0004286B
:1040B00002D0082802D017E0204830BD22A0C2F369
:1040C0008343D203C05C896A0BD500BF22A41B4B7B
:1040D00001F00F01615CB3FBF1F50146284648434E
:1040E00030BD174A504330BD0D4830BD0B48006805
:1040F00070471148094A0168124B1068C1F3022148
:1041000006E00D48054A01680E4B1068C1F3C22154
:10411000595CC84070470000001002400C000020AD
:1041200000127A00000042428004424200700040C7
:10413000002002405C440008041002400024F40007
:1041400000093D0048450008020304050607080968
:104150000A0B0C0D0E0F10100102030405060708D0
:10416000090A0B0C0D0E0F102DE9FC410546DFF876
:1041700080612868C10354D5B0690024C10009D406
:10418000B06940F08050B0610124B06900F0805007
:1041900000900098DFF85C713868C10519D4386860
:1041A00040F480703860FEF7B1FB80463868C10586
:1041B0000FD4FEF7ABFBA0EB08006528F6D3032075
:1041C00093E0FEF7A3FBC01B41F28931884218D36C
:1041D000F5E7F06910F440701EBF696801F44071A2
:1041E000884213D0DFF81011F06901220A60002321
:1041F00020F440700B60F061C00707D5FEF786FB26
:104200000746F069C0F340000028DAD0F169686819
:1042100021F440710143F1611CB1B06920F080507C
:10422000B0612878C10705D5F26AA868920840EA0B
:104230008202F2622978880705D5F16AE86821F4DC
:1042400040310143F1622978480705D5F16A2869B0
:1042500021F440210143F1622978880605D5F16AED
:10426000E86921F010010143F1622968880305D54E
:104270003168286B21F480010143316029784806B8
:1042800005D5F16A286A21F020010143F1622978FD
:10429000080705D5F16A686921F440110143F1620C
:1042A0002978C80605D5F16AA86921F440010143BF
:1042B000F1622968880505D53168A86A21F40001F2
:1042C000014331602978080605D5B16A686A21F48E
:1042D000F8710143B1622968C80405D5F16AE86A3A
:1042E00021F480710143F1620020BDE8F6810000F5
:1042F00004100240007000404004424238B50D4DA9
:104300000D4B2A7804464FF47A711868B1FBF2F22B
:10431000B0FBF2F0FEF767FB50B9102C08D2002278
:1043200021464FF0FF30FEF737FBAC60002032BD76
:10433000012032BD000000200C0000207047FEE785
:10434000FEE7FEE7FEE770477047704780B500F074
:1043500047F8BDE80140FEF773BB194800680169E2
:10436000CA0705D5C168CA0744BF6FF001010161E2
:104370001449087808B901220A7070471248FEF7FC
:104380008CB838B511480168CA6902F00F020F2ACB
:1043900002D10F20086231BD0D4C218811B90D4D9D
:1043A00001222A7005230C4D01222944FFF787F8CA
:1043B00020B90A4908702288521C228031BD0000B1
:1043C000B0030020500400204C030020DC0000203B
:1043D000DA000020D80000204C010020D900002085
:1043E0000248416802788A18426070470000002045
:1043F00010B51448144A016841F470010160106856
:10440000124940F001001060536811480B4053609E
:104410000023146804401460116821F480211160A5
:10442000506820F4FE005060D06A00090001D0629C
:10443000116B08480140116393604FF0006006491A
:10444000086010BD88ED00E0001002400CC07FF84D
:10445000FFFFF6FECCFC00FF08ED00E000000000CE
:1044600000000000010203040607080910B507490F
:1044700079441831064C7C44163404E00A68081D5F
:10448000114488470146A142F8D110BD2C0000001C
:10449000480000004EF68851CEF20001086840F452
:1044A00070000860BFF34F8FBFF36F8F4FF0007045
:1044B000E1EE100A7047000053CDFFFF7C030000BF
:1044C000D8000020000000003BCCFFFF6601000088
:1044D000A20000000000002000F00DF8002801D02C
:1044E000FFF7C4FFAFF300800020AFF30080FEF7BA
:1044F000A0FB00F002F80120704700F001B80000B6
:1045000007463846FDF700FDFBE738B504460D4683
:10451000284600F005F8A84218BF0024204632BD06
:104520000149FEF779BB00BF900000200148804799
:1045300001480047F14300083D450008AFF3008003
:10454000FFF7A8FFFFF7C8FF000000000102030407
:1045500000002E004300FFF7FEBFFFF7FEBFFFF78E
:10456000FEBFFFF7FEBFFFF7FEBFFFF7FEBFFFF77F
:10457000FEBFFFF7FEBFFFF7FEBFFFF7FEBFFFF76F
:10458000FEBFFFF7FEBFFFF7FEBFFFF7FEBFFFF75F
:10459000FEBFFFF7FEBFFFF7FEBFFFF7FEBFFFF74F
:1045A000FEBFFFF7FEBFFFF7FEBFFFF7FEBFFFF73F
:1045B000FEBFFFF7FEBFFFF7FEBFFFF7FEBFFFF72F
:1045C000FEBFFFF7FEBFFFF7FEBFFFF7FEBFFFF71F
:1045D000FEBFFFF7FEBFFFF7FEBFFFF7FEBFFFF70F
:1045E000FEBFFFF7FEBFFFF7FEBFFFF7FEBFFFF7FF
:1045F000FEBFFFF7FEBFFFF7FEBFFFF7FEBFFFF7EF
:10460000FEBFFFF7FEBFFFF7FEBFFFF7FEBFFFF7DE
:10461000FEBFFFF7FEBFFFF7FEBFFFF7FEBFFFF7CE
:10462000FEBFFFF7FEBFFFF7FEBFFFF7FEBFFFF7BE
:10463000FEBF43010001221008F00507127A005066
:104640004500080452FF01F200521410010000540A
:104650000C214C1148F3162000012002CD12000855
:104660002C43BB123C2101200A02040101F8030083
:104670002048040020082104211B610812D460F2A4
:0346800012C06401
:040000050800453D6D
:00000001FF
